{
  "contractName": "ContractManager",
  "abi": [
    {
      "anonymous": false,
      "inputs": [
        {
          "indexed": false,
          "internalType": "address",
          "name": "owner",
          "type": "address"
        },
        {
          "indexed": false,
          "internalType": "address",
          "name": "location",
          "type": "address"
        }
      ],
      "name": "PersonalContractsCreated",
      "type": "event"
    },
    {
      "constant": true,
      "inputs": [],
      "name": "getPersonalContracts",
      "outputs": [
        {
          "internalType": "address",
          "name": "",
          "type": "address"
        }
      ],
      "payable": false,
      "stateMutability": "view",
      "type": "function"
    },
    {
      "constant": false,
      "inputs": [
        {
          "internalType": "address",
          "name": "owner",
          "type": "address"
        }
      ],
      "name": "createPersonalContracts",
      "outputs": [],
      "payable": false,
      "stateMutability": "nonpayable",
      "type": "function"
    },
    {
      "constant": false,
      "inputs": [
        {
          "internalType": "address",
          "name": "newParticipant",
          "type": "address"
        },
        {
          "internalType": "contract BasicContract",
          "name": "contractAddress",
          "type": "address"
        }
      ],
      "name": "addParticipant",
      "outputs": [],
      "payable": false,
      "stateMutability": "nonpayable",
      "type": "function"
    },
    {
      "constant": false,
      "inputs": [
        {
          "internalType": "string",
          "name": "title",
          "type": "string"
        }
      ],
      "name": "createContract",
      "outputs": [],
      "payable": false,
      "stateMutability": "nonpayable",
      "type": "function"
    }
  ],
  "bytecode": "0x608060405234801561001057600080fd5b506118e9806100206000396000f3fe608060405234801561001057600080fd5b506004361061004c5760003560e01c806318f80bb91461005157806341eb998d1461010c578063a88573b314610156578063d35ada321461019a575b600080fd5b61010a6004803603602081101561006757600080fd5b810190808035906020019064010000000081111561008457600080fd5b82018360208201111561009657600080fd5b803590602001918460018302840111640100000000831117156100b857600080fd5b91908080601f016020809104026020016040519081016040528093929190818152602001838380828437600081840152601f19601f8201169050808301925050505050505091929192905050506101fe565b005b6101146103ac565b604051808273ffffffffffffffffffffffffffffffffffffffff1673ffffffffffffffffffffffffffffffffffffffff16815260200191505060405180910390f35b6101986004803603602081101561016c57600080fd5b81019080803573ffffffffffffffffffffffffffffffffffffffff169060200190929190505050610412565b005b6101fc600480360360408110156101b057600080fd5b81019080803573ffffffffffffffffffffffffffffffffffffffff169060200190929190803573ffffffffffffffffffffffffffffffffffffffff169060200190929190505050610557565b005b600033823060405161020f90610704565b808473ffffffffffffffffffffffffffffffffffffffff1673ffffffffffffffffffffffffffffffffffffffff168152602001806020018373ffffffffffffffffffffffffffffffffffffffff1673ffffffffffffffffffffffffffffffffffffffff168152602001828103825284818151815260200191508051906020019080838360005b838110156102b0578082015181840152602081019050610295565b50505050905090810190601f1680156102dd5780820380516001836020036101000a031916815260200191505b50945050505050604051809103906000f080158015610300573d6000803e3d6000fd5b509050600061030e33610600565b90508073ffffffffffffffffffffffffffffffffffffffff16635f539d69836040518263ffffffff1660e01b8152600401808273ffffffffffffffffffffffffffffffffffffffff1673ffffffffffffffffffffffffffffffffffffffff168152602001915050600060405180830381600087803b15801561038f57600080fd5b505af11580156103a3573d6000803e3d6000fd5b50505050505050565b60008060003373ffffffffffffffffffffffffffffffffffffffff1673ffffffffffffffffffffffffffffffffffffffff16815260200190815260200160002060009054906101000a900473ffffffffffffffffffffffffffffffffffffffff16905090565b600060405161042090610711565b604051809103906000f08015801561043c573d6000803e3d6000fd5b509050806000808473ffffffffffffffffffffffffffffffffffffffff1673ffffffffffffffffffffffffffffffffffffffff16815260200190815260200160002060006101000a81548173ffffffffffffffffffffffffffffffffffffffff021916908373ffffffffffffffffffffffffffffffffffffffff1602179055507f0d1816353112c7bbdb2e2c5ade55947ad1c04c0f4ea0b4f58575479f4a0c28468282604051808373ffffffffffffffffffffffffffffffffffffffff1673ffffffffffffffffffffffffffffffffffffffff1681526020018273ffffffffffffffffffffffffffffffffffffffff1673ffffffffffffffffffffffffffffffffffffffff1681526020019250505060405180910390a15050565b600061056283610600565b90508073ffffffffffffffffffffffffffffffffffffffff16635f539d69836040518263ffffffff1660e01b8152600401808273ffffffffffffffffffffffffffffffffffffffff1673ffffffffffffffffffffffffffffffffffffffff168152602001915050600060405180830381600087803b1580156105e357600080fd5b505af11580156105f7573d6000803e3d6000fd5b50505050505050565b60008073ffffffffffffffffffffffffffffffffffffffff166000808473ffffffffffffffffffffffffffffffffffffffff1673ffffffffffffffffffffffffffffffffffffffff16815260200190815260200160002060009054906101000a900473ffffffffffffffffffffffffffffffffffffffff1673ffffffffffffffffffffffffffffffffffffffff16141561069e5761069d82610412565b5b6000808373ffffffffffffffffffffffffffffffffffffffff1673ffffffffffffffffffffffffffffffffffffffff16815260200190815260200160002060009054906101000a900473ffffffffffffffffffffffffffffffffffffffff169050919050565b610e958061071f83390190565b610301806115b48339019056fe60806040523480156200001157600080fd5b5060405162000e9538038062000e95833981810160405260608110156200003757600080fd5b8101908080519060200190929190805160405193929190846401000000008211156200006257600080fd5b838201915060208201858111156200007957600080fd5b82518660018202830111640100000000821117156200009757600080fd5b8083526020830192505050908051906020019080838360005b83811015620000cd578082015181840152602081019050620000b0565b50505050905090810190601f168015620000fb5780820380516001836020036101000a031916815260200191505b5060405260200180519060200190929190505050806000806101000a81548173ffffffffffffffffffffffffffffffffffffffff021916908373ffffffffffffffffffffffffffffffffffffffff16021790555082600160006101000a81548173ffffffffffffffffffffffffffffffffffffffff021916908373ffffffffffffffffffffffffffffffffffffffff1602179055506040518060400160405280600581526020017f48656c6c6f00000000000000000000000000000000000000000000000000000081525060049080519060200190620001dd92919062000302565b508160069080519060200190620001f692919062000302565b50600160036000600160009054906101000a900473ffffffffffffffffffffffffffffffffffffffff1673ffffffffffffffffffffffffffffffffffffffff1673ffffffffffffffffffffffffffffffffffffffff16815260200190815260200160002060006101000a81548160ff0219169083151502179055506002600160009054906101000a900473ffffffffffffffffffffffffffffffffffffffff1690806001815401808255809150509060018203906000526020600020016000909192909190916101000a81548173ffffffffffffffffffffffffffffffffffffffff021916908373ffffffffffffffffffffffffffffffffffffffff16021790555050505050620003b1565b828054600181600116156101000203166002900490600052602060002090601f016020900481019282601f106200034557805160ff191683800117855562000376565b8280016001018555821562000376579182015b828111156200037557825182559160200191906001019062000358565b5b50905062000385919062000389565b5090565b620003ae91905b80821115620003aa57600081600090555060010162000390565b5090565b90565b610ad480620003c16000396000f3fe608060405234801561001057600080fd5b506004361061007d5760003560e01c806379d6348d1161005b57806379d6348d14610221578063d13319c4146102dc578063dfafe10f146102fa578063ff3c1a8f1461033e5761007d565b8063277fc0e91461008257806359016c791461013f5780635aa68ac0146101c2575b600080fd5b6100c46004803603602081101561009857600080fd5b81019080803573ffffffffffffffffffffffffffffffffffffffff1690602001909291905050506103c1565b6040518080602001828103825283818151815260200191508051906020019080838360005b838110156101045780820151818401526020810190506100e9565b50505050905090810190601f1680156101315780820380516001836020036101000a031916815260200191505b509250505060405180910390f35b6101476104a2565b6040518080602001828103825283818151815260200191508051906020019080838360005b8381101561018757808201518184015260208101905061016c565b50505050905090810190601f1680156101b45780820380516001836020036101000a031916815260200191505b509250505060405180910390f35b6101ca610544565b6040518080602001828103825283818151815260200191508051906020019060200280838360005b8381101561020d5780820151818401526020810190506101f2565b505050509050019250505060405180910390f35b6102da6004803603602081101561023757600080fd5b810190808035906020019064010000000081111561025457600080fd5b82018360208201111561026657600080fd5b8035906020019184600183028401116401000000008311171561028857600080fd5b91908080601f016020809104026020016040519081016040528093929190818152602001838380828437600081840152601f19601f8201169050808301925050505050505091929192905050506105d2565b005b6102e461067c565b6040518082815260200191505060405180910390f35b61033c6004803603602081101561031057600080fd5b81019080803573ffffffffffffffffffffffffffffffffffffffff1690602001909291905050506106fe565b005b610346610958565b6040518080602001828103825283818151815260200191508051906020019080838360005b8381101561038657808201518184015260208101905061036b565b50505050905090810190601f1680156103b35780820380516001836020036101000a031916815260200191505b509250505060405180910390f35b6060600560008373ffffffffffffffffffffffffffffffffffffffff1673ffffffffffffffffffffffffffffffffffffffff1681526020019081526020016000208054600181600116156101000203166002900480601f0160208091040260200160405190810160405280929190818152602001828054600181600116156101000203166002900480156104965780601f1061046b57610100808354040283529160200191610496565b820191906000526020600020905b81548152906001019060200180831161047957829003601f168201915b50505050509050919050565b606060048054600181600116156101000203166002900480601f01602080910402602001604051908101604052809291908181526020018280546001816001161561010002031660029004801561053a5780601f1061050f5761010080835404028352916020019161053a565b820191906000526020600020905b81548152906001019060200180831161051d57829003601f168201915b5050505050905090565b606060028054806020026020016040519081016040528092919081815260200182805480156105c857602002820191906000526020600020905b8160009054906101000a900473ffffffffffffffffffffffffffffffffffffffff1673ffffffffffffffffffffffffffffffffffffffff168152602001906001019080831161057e575b5050505050905090565b600360003373ffffffffffffffffffffffffffffffffffffffff1673ffffffffffffffffffffffffffffffffffffffff16815260200190815260200160002060009054906101000a900460ff16156106795780600560003373ffffffffffffffffffffffffffffffffffffffff1673ffffffffffffffffffffffffffffffffffffffff16815260200190815260200160002090805190602001906106779291906109fa565b505b50565b6000600460405160200180828054600181600116156101000203166002900480156106de5780601f106106bc5761010080835404028352918201916106de565b820191906000526020600020905b8154815290600101906020018083116106ca575b505091505060405160208183030381529060405280519060200120905090565b600160009054906101000a900473ffffffffffffffffffffffffffffffffffffffff1673ffffffffffffffffffffffffffffffffffffffff163373ffffffffffffffffffffffffffffffffffffffff161480156107a55750600360008273ffffffffffffffffffffffffffffffffffffffff1673ffffffffffffffffffffffffffffffffffffffff16815260200190815260200160002060009054906101000a900460ff16155b15610955576001600360008373ffffffffffffffffffffffffffffffffffffffff1673ffffffffffffffffffffffffffffffffffffffff16815260200190815260200160002060006101000a81548160ff02191690831515021790555060028190806001815401808255809150509060018203906000526020600020016000909192909190916101000a81548173ffffffffffffffffffffffffffffffffffffffff021916908373ffffffffffffffffffffffffffffffffffffffff160217905550506000809054906101000a900473ffffffffffffffffffffffffffffffffffffffff1673ffffffffffffffffffffffffffffffffffffffff1663d35ada3282306040518363ffffffff1660e01b8152600401808373ffffffffffffffffffffffffffffffffffffffff1673ffffffffffffffffffffffffffffffffffffffff1681526020018273ffffffffffffffffffffffffffffffffffffffff1673ffffffffffffffffffffffffffffffffffffffff16815260200192505050600060405180830381600087803b15801561093c57600080fd5b505af1158015610950573d6000803e3d6000fd5b505050505b50565b606060068054600181600116156101000203166002900480601f0160208091040260200160405190810160405280929190818152602001828054600181600116156101000203166002900480156109f05780601f106109c5576101008083540402835291602001916109f0565b820191906000526020600020905b8154815290600101906020018083116109d357829003601f168201915b5050505050905090565b828054600181600116156101000203166002900490600052602060002090601f016020900481019282601f10610a3b57805160ff1916838001178555610a69565b82800160010185558215610a69579182015b82811115610a68578251825591602001919060010190610a4d565b5b509050610a769190610a7a565b5090565b610a9c91905b80821115610a98576000816000905550600101610a80565b5090565b9056fea265627a7a7231582099c1dd76e145561223cc07f242b567e13169b91ff72e5e109e07d7b94fd913db64736f6c63430005100032608060405234801561001057600080fd5b50336000806101000a81548173ffffffffffffffffffffffffffffffffffffffff021916908373ffffffffffffffffffffffffffffffffffffffff1602179055506102a1806100606000396000f3fe608060405234801561001057600080fd5b50600436106100365760003560e01c80635f539d691461003b578063c3a2a93a1461007f575b600080fd5b61007d6004803603602081101561005157600080fd5b81019080803573ffffffffffffffffffffffffffffffffffffffff1690602001909291905050506100de565b005b6100876101de565b6040518080602001828103825283818151815260200191508051906020019060200280838360005b838110156100ca5780820151818401526020810190506100af565b505050509050019250505060405180910390f35b60018190806001815401808255809150509060018203906000526020600020016000909192909190916101000a81548173ffffffffffffffffffffffffffffffffffffffff021916908373ffffffffffffffffffffffffffffffffffffffff160217905550507fed8c598cb69482ce991fa6e91ff326354506f29f48047c38043f4352a51d40b63382604051808373ffffffffffffffffffffffffffffffffffffffff1673ffffffffffffffffffffffffffffffffffffffff1681526020018273ffffffffffffffffffffffffffffffffffffffff1673ffffffffffffffffffffffffffffffffffffffff1681526020019250505060405180910390a150565b6060600180548060200260200160405190810160405280929190818152602001828054801561026257602002820191906000526020600020905b8160009054906101000a900473ffffffffffffffffffffffffffffffffffffffff1673ffffffffffffffffffffffffffffffffffffffff1681526020019060010190808311610218575b505050505090509056fea265627a7a72315820046d076e14f3b5000575fa87d44794350fef287542dccfbbeb6c59c4ddd60baa64736f6c63430005100032a265627a7a72315820a5462ed5104ef500ed01998f407956735ad4681a6790c95893894a578e87af2064736f6c63430005100032",
  "source": "pragma solidity >=0.4.21 <0.7.0;\n\ncontract BasicContract {\n  ContractManager manager;\n  address owner;\n  address[] participants;\n  mapping(address => bool) permissions;\n  string content;\n  mapping(address => string) signatures;\n  string title;\n\n  constructor(address creator, string memory t, ContractManager caller) public {\n    manager = caller;\n    owner = creator;\n    content = \"Hello\";\n    title = t;\n    permissions[owner] = true;\n    participants.push(owner);\n  }\n\n  function addParticipant(address participant) public {\n    // Make sure not to readd  the same person\n    if (msg.sender == owner && !permissions[participant]) {\n      permissions[participant] = true;\n      participants.push(participant);\n      manager.addParticipant(participant, this);\n    }\n  }\n\n  function sign(string memory signature) public {\n    // Check they are allowed to sign the contract\n    if (permissions[msg.sender]) {\n      // TODO: Validate using ECRecover\n\n      signatures[msg.sender] = signature;\n    }\n  }\n\n  function getSignature(address signee) public view returns (string memory) {\n    return signatures[signee];\n  }\n\n  function getParticipants() public view returns (address[] memory) {\n    return participants;\n  }\n\n  function getContent() public view returns (string memory) {\n    return content;\n  }\n\n  function getTitle() public view returns (string memory) {\n    return title;\n  }\n\n  function getHash() public view returns (bytes32) {\n    return keccak256(abi.encodePacked(content));\n  }\n\n}\n\ncontract PersonalContracts {\n  address owner;\n  BasicContract[] contracts;\n\n  event ContractAssigned(address creator, address location);\n\n  function addContract(BasicContract c) public {\n    contracts.push(c);\n    emit ContractAssigned(msg.sender, address(c));\n  }\n\n  function getContracts() public view returns(BasicContract[] memory) {\n      return contracts;\n  }\n\n  constructor() public {\n    owner = msg.sender;\n  }\n}\n\ncontract ContractManager {\n  mapping(address => PersonalContracts) personalContracts;\n\n  function getPersonalContracts() public view returns (address) {\n    return address(personalContracts[msg.sender]);\n  }\n\n  event PersonalContractsCreated(address owner, address location);\n\n  function createPersonalContracts(address owner) public {\n    PersonalContracts pContracts = new PersonalContracts();\n    personalContracts[owner] = pContracts;\n    emit PersonalContractsCreated(owner, address(pContracts));\n  }\n\n  function getOrCreatePersonalContracts(address owner) private returns (PersonalContracts) {\n    if (address(personalContracts[owner]) == address(0)) {\n      createPersonalContracts(owner);\n    }\n\n    return personalContracts[owner];\n  }\n\n\n  function addParticipant(address newParticipant, BasicContract contractAddress) public {\n    // TODO: Ensure permission to do this?\n    PersonalContracts pContract = getOrCreatePersonalContracts(newParticipant);\n    pContract.addContract(contractAddress);\n  }\n\n\n  function createContract(string memory title) public {\n    BasicContract newContract = new BasicContract(msg.sender, title, this);\n\n    // Automatically assign the contract to the creators personal contracts\n    PersonalContracts pContracts = getOrCreatePersonalContracts(msg.sender);\n    pContracts.addContract(newContract);\n  }\n}",
  "sourcePath": "C:\\Users\\Michael\\Documents\\Programming\\truffle-react\\contracts\\ContractManager.sol",
  "compiler": {
    "name": "solc",
    "version": "0.5.16+commit.9c3226ce.Emscripten.clang"
  },
  "schemaVersion": "3.0.23",
  "updatedAt": "2020-06-07T11:17:59.819Z",
  "networkType": "ethereum",
  "devdoc": {
    "methods": {}
  },
  "userdoc": {
    "methods": {}
  }
}