{
  "contractName": "ContractManager",
  "abi": [
    {
      "anonymous": false,
      "inputs": [
        {
          "indexed": false,
          "internalType": "address",
          "name": "owner",
          "type": "address"
        },
        {
          "indexed": false,
          "internalType": "address",
          "name": "location",
          "type": "address"
        }
      ],
      "name": "PersonalContractsCreated",
      "type": "event"
    },
    {
      "constant": true,
      "inputs": [],
      "name": "getPersonalContracts",
      "outputs": [
        {
          "internalType": "address",
          "name": "",
          "type": "address"
        }
      ],
      "payable": false,
      "stateMutability": "view",
      "type": "function"
    },
    {
      "constant": false,
      "inputs": [
        {
          "internalType": "address",
          "name": "owner",
          "type": "address"
        }
      ],
      "name": "createPersonalContracts",
      "outputs": [],
      "payable": false,
      "stateMutability": "nonpayable",
      "type": "function"
    },
    {
      "constant": false,
      "inputs": [
        {
          "internalType": "string",
          "name": "title",
          "type": "string"
        }
      ],
      "name": "createContract",
      "outputs": [],
      "payable": false,
      "stateMutability": "nonpayable",
      "type": "function"
    }
  ],
  "bytecode": "0x608060405234801561001057600080fd5b5061153d806100206000396000f3fe608060405234801561001057600080fd5b50600436106100415760003560e01c806318f80bb91461004657806341eb998d14610101578063a88573b31461014b575b600080fd5b6100ff6004803603602081101561005c57600080fd5b810190808035906020019064010000000081111561007957600080fd5b82018360208201111561008b57600080fd5b803590602001918460018302840111640100000000831117156100ad57600080fd5b91908080601f016020809104026020016040519081016040528093929190818152602001838380828437600081840152601f19601f82011690508083019250505050505050919291929050505061018f565b005b610109610309565b604051808273ffffffffffffffffffffffffffffffffffffffff1673ffffffffffffffffffffffffffffffffffffffff16815260200191505060405180910390f35b61018d6004803603602081101561016157600080fd5b81019080803573ffffffffffffffffffffffffffffffffffffffff16906020019092919050505061036f565b005b6000338260405161019f906105b8565b808373ffffffffffffffffffffffffffffffffffffffff1673ffffffffffffffffffffffffffffffffffffffff16815260200180602001828103825283818151815260200191508051906020019080838360005b8381101561020e5780820151818401526020810190506101f3565b50505050905090810190601f16801561023b5780820380516001836020036101000a031916815260200191505b509350505050604051809103906000f08015801561025d573d6000803e3d6000fd5b509050600061026b336104b4565b90508073ffffffffffffffffffffffffffffffffffffffff16635f539d69836040518263ffffffff1660e01b8152600401808273ffffffffffffffffffffffffffffffffffffffff1673ffffffffffffffffffffffffffffffffffffffff168152602001915050600060405180830381600087803b1580156102ec57600080fd5b505af1158015610300573d6000803e3d6000fd5b50505050505050565b60008060003373ffffffffffffffffffffffffffffffffffffffff1673ffffffffffffffffffffffffffffffffffffffff16815260200190815260200160002060009054906101000a900473ffffffffffffffffffffffffffffffffffffffff16905090565b600060405161037d906105c5565b604051809103906000f080158015610399573d6000803e3d6000fd5b509050806000808473ffffffffffffffffffffffffffffffffffffffff1673ffffffffffffffffffffffffffffffffffffffff16815260200190815260200160002060006101000a81548173ffffffffffffffffffffffffffffffffffffffff021916908373ffffffffffffffffffffffffffffffffffffffff1602179055507f0d1816353112c7bbdb2e2c5ade55947ad1c04c0f4ea0b4f58575479f4a0c28468282604051808373ffffffffffffffffffffffffffffffffffffffff1673ffffffffffffffffffffffffffffffffffffffff1681526020018273ffffffffffffffffffffffffffffffffffffffff1673ffffffffffffffffffffffffffffffffffffffff1681526020019250505060405180910390a15050565b60008073ffffffffffffffffffffffffffffffffffffffff166000808473ffffffffffffffffffffffffffffffffffffffff1673ffffffffffffffffffffffffffffffffffffffff16815260200190815260200160002060009054906101000a900473ffffffffffffffffffffffffffffffffffffffff1673ffffffffffffffffffffffffffffffffffffffff161415610552576105518261036f565b5b6000808373ffffffffffffffffffffffffffffffffffffffff1673ffffffffffffffffffffffffffffffffffffffff16815260200190815260200160002060009054906101000a900473ffffffffffffffffffffffffffffffffffffffff169050919050565b610c35806105d383390190565b610301806112088339019056fe608060405234801561001057600080fd5b50604051610c35380380610c358339818101604052604081101561003357600080fd5b81019080805190602001909291908051604051939291908464010000000082111561005d57600080fd5b8382019150602082018581111561007357600080fd5b825186600182028301116401000000008211171561009057600080fd5b8083526020830192505050908051906020019080838360005b838110156100c45780820151818401526020810190506100a9565b50505050905090810190601f1680156100f15780820380516001836020036101000a031916815260200191505b50604052505050816000806101000a81548173ffffffffffffffffffffffffffffffffffffffff021916908373ffffffffffffffffffffffffffffffffffffffff1602179055506040518060400160405280600581526020017f48656c6c6f000000000000000000000000000000000000000000000000000000815250600390805190602001906101839291906102a2565b50806005908051906020019061019a9291906102a2565b506001600260008060009054906101000a900473ffffffffffffffffffffffffffffffffffffffff1673ffffffffffffffffffffffffffffffffffffffff1673ffffffffffffffffffffffffffffffffffffffff16815260200190815260200160002060006101000a81548160ff02191690831515021790555060016000809054906101000a900473ffffffffffffffffffffffffffffffffffffffff1690806001815401808255809150509060018203906000526020600020016000909192909190916101000a81548173ffffffffffffffffffffffffffffffffffffffff021916908373ffffffffffffffffffffffffffffffffffffffff160217905550505050610347565b828054600181600116156101000203166002900490600052602060002090601f016020900481019282601f106102e357805160ff1916838001178555610311565b82800160010185558215610311579182015b828111156103105782518255916020019190600101906102f5565b5b50905061031e9190610322565b5090565b61034491905b80821115610340576000816000905550600101610328565b5090565b90565b6108df806103566000396000f3fe608060405234801561001057600080fd5b50600436106100625760003560e01c8063277fc0e91461006757806359016c791461012457806379d6348d146101a7578063d13319c414610262578063dfafe10f14610280578063ff3c1a8f146102c4575b600080fd5b6100a96004803603602081101561007d57600080fd5b81019080803573ffffffffffffffffffffffffffffffffffffffff169060200190929190505050610347565b6040518080602001828103825283818151815260200191508051906020019080838360005b838110156100e95780820151818401526020810190506100ce565b50505050905090810190601f1680156101165780820380516001836020036101000a031916815260200191505b509250505060405180910390f35b61012c610428565b6040518080602001828103825283818151815260200191508051906020019080838360005b8381101561016c578082015181840152602081019050610151565b50505050905090810190601f1680156101995780820380516001836020036101000a031916815260200191505b509250505060405180910390f35b610260600480360360208110156101bd57600080fd5b81019080803590602001906401000000008111156101da57600080fd5b8201836020820111156101ec57600080fd5b8035906020019184600183028401116401000000008311171561020e57600080fd5b91908080601f016020809104026020016040519081016040528093929190818152602001838380828437600081840152601f19601f8201169050808301925050505050505091929192905050506104ca565b005b61026a610574565b6040518082815260200191505060405180910390f35b6102c26004803603602081101561029657600080fd5b81019080803573ffffffffffffffffffffffffffffffffffffffff1690602001909291905050506105f6565b005b6102cc610763565b6040518080602001828103825283818151815260200191508051906020019080838360005b8381101561030c5780820151818401526020810190506102f1565b50505050905090810190601f1680156103395780820380516001836020036101000a031916815260200191505b509250505060405180910390f35b6060600460008373ffffffffffffffffffffffffffffffffffffffff1673ffffffffffffffffffffffffffffffffffffffff1681526020019081526020016000208054600181600116156101000203166002900480601f01602080910402602001604051908101604052809291908181526020018280546001816001161561010002031660029004801561041c5780601f106103f15761010080835404028352916020019161041c565b820191906000526020600020905b8154815290600101906020018083116103ff57829003601f168201915b50505050509050919050565b606060038054600181600116156101000203166002900480601f0160208091040260200160405190810160405280929190818152602001828054600181600116156101000203166002900480156104c05780601f10610495576101008083540402835291602001916104c0565b820191906000526020600020905b8154815290600101906020018083116104a357829003601f168201915b5050505050905090565b600260003373ffffffffffffffffffffffffffffffffffffffff1673ffffffffffffffffffffffffffffffffffffffff16815260200190815260200160002060009054906101000a900460ff16156105715780600460003373ffffffffffffffffffffffffffffffffffffffff1673ffffffffffffffffffffffffffffffffffffffff168152602001908152602001600020908051906020019061056f929190610805565b505b50565b6000600360405160200180828054600181600116156101000203166002900480156105d65780601f106105b45761010080835404028352918201916105d6565b820191906000526020600020905b8154815290600101906020018083116105c2575b505091505060405160208183030381529060405280519060200120905090565b6000809054906101000a900473ffffffffffffffffffffffffffffffffffffffff1673ffffffffffffffffffffffffffffffffffffffff163373ffffffffffffffffffffffffffffffffffffffff1614801561069c5750600260008273ffffffffffffffffffffffffffffffffffffffff1673ffffffffffffffffffffffffffffffffffffffff16815260200190815260200160002060009054906101000a900460ff16155b15610760576001600260008373ffffffffffffffffffffffffffffffffffffffff1673ffffffffffffffffffffffffffffffffffffffff16815260200190815260200160002060006101000a81548160ff02191690831515021790555060018190806001815401808255809150509060018203906000526020600020016000909192909190916101000a81548173ffffffffffffffffffffffffffffffffffffffff021916908373ffffffffffffffffffffffffffffffffffffffff160217905550505b50565b606060058054600181600116156101000203166002900480601f0160208091040260200160405190810160405280929190818152602001828054600181600116156101000203166002900480156107fb5780601f106107d0576101008083540402835291602001916107fb565b820191906000526020600020905b8154815290600101906020018083116107de57829003601f168201915b5050505050905090565b828054600181600116156101000203166002900490600052602060002090601f016020900481019282601f1061084657805160ff1916838001178555610874565b82800160010185558215610874579182015b82811115610873578251825591602001919060010190610858565b5b5090506108819190610885565b5090565b6108a791905b808211156108a357600081600090555060010161088b565b5090565b9056fea265627a7a723158205f3255f80917b7a9dbdd00332197b62a99d9e9356722093f6e421ce71ded78ed64736f6c63430005100032608060405234801561001057600080fd5b50336000806101000a81548173ffffffffffffffffffffffffffffffffffffffff021916908373ffffffffffffffffffffffffffffffffffffffff1602179055506102a1806100606000396000f3fe608060405234801561001057600080fd5b50600436106100365760003560e01c80635f539d691461003b578063c3a2a93a1461007f575b600080fd5b61007d6004803603602081101561005157600080fd5b81019080803573ffffffffffffffffffffffffffffffffffffffff1690602001909291905050506100de565b005b6100876101de565b6040518080602001828103825283818151815260200191508051906020019060200280838360005b838110156100ca5780820151818401526020810190506100af565b505050509050019250505060405180910390f35b60018190806001815401808255809150509060018203906000526020600020016000909192909190916101000a81548173ffffffffffffffffffffffffffffffffffffffff021916908373ffffffffffffffffffffffffffffffffffffffff160217905550507fed8c598cb69482ce991fa6e91ff326354506f29f48047c38043f4352a51d40b63382604051808373ffffffffffffffffffffffffffffffffffffffff1673ffffffffffffffffffffffffffffffffffffffff1681526020018273ffffffffffffffffffffffffffffffffffffffff1673ffffffffffffffffffffffffffffffffffffffff1681526020019250505060405180910390a150565b6060600180548060200260200160405190810160405280929190818152602001828054801561026257602002820191906000526020600020905b8160009054906101000a900473ffffffffffffffffffffffffffffffffffffffff1673ffffffffffffffffffffffffffffffffffffffff1681526020019060010190808311610218575b505050505090509056fea265627a7a72315820c3a26823be6f2d2f86f2aeac250c781929daf74527cfad558d3fe2c4e4d9d8f364736f6c63430005100032a265627a7a723158208d88273a02e0ca86e24c516e48a229678c8ee2fceee8a8421df1499b63eaff9a64736f6c63430005100032",
  "source": "pragma solidity >=0.4.21 <0.7.0;\n\ncontract BasicContract {\n  address owner;\n  address[] participants;\n  mapping(address => bool) permissions;\n  string content;\n  mapping(address => string) signatures;\n  string title;\n\n  constructor(address creator, string memory t) public {\n    owner = creator;\n    content = \"Hello\";\n    title = t;\n    permissions[owner] = true;\n    participants.push(owner);\n  }\n\n  function addParticipant(address participant) public {\n    // Make sure not to readd  the same person\n    if (msg.sender == owner && !permissions[participant]) {\n      permissions[participant] = true;\n      participants.push(participant);\n    }\n  }\n\n  function sign(string memory signature) public {\n    // Check they are allowed to sign the contract\n    if (permissions[msg.sender]) {\n      // TODO: Validate using ECRecover\n\n      signatures[msg.sender] = signature;\n    }\n  }\n\n  function getSignature(address signee) public view returns (string memory) {\n    return signatures[signee];\n  }\n\n  function getContent() public view returns (string memory) {\n    return content;\n  }\n\n  function getTitle() public view returns (string memory) {\n    return title;\n  }\n\n  function getHash() public view returns (bytes32) {\n    return keccak256(abi.encodePacked(content));\n  }\n\n}\n\ncontract PersonalContracts {\n  address owner;\n  BasicContract[] contracts;\n\n  event ContractAssigned(address creator, address location);\n\n  function addContract(BasicContract c) public {\n    contracts.push(c);\n    emit ContractAssigned(msg.sender, address(c));\n  }\n\n  function getContracts() public view returns(BasicContract[] memory) {\n      return contracts;\n  }\n\n  constructor() public {\n    owner = msg.sender;\n  }\n}\n\ncontract ContractManager {\n  mapping(address => PersonalContracts) personalContracts;\n\n  function getPersonalContracts() public view returns (address) {\n    return address(personalContracts[msg.sender]);\n  }\n\n  event PersonalContractsCreated(address owner, address location);\n\n  function createPersonalContracts(address owner) public {\n    PersonalContracts pContracts = new PersonalContracts();\n    personalContracts[owner] = pContracts;\n    emit PersonalContractsCreated(owner, address(pContracts));\n  }\n\n  function getOrCreatePersonalContracts(address owner) private returns (PersonalContracts) {\n    if (address(personalContracts[owner]) == address(0)) {\n      createPersonalContracts(owner);\n    }\n\n    return personalContracts[owner];\n  }\n\n\n  function createContract(string memory title) public {\n    BasicContract newContract = new BasicContract(msg.sender, title);\n\n    // Automatically assign the contract to the creators personal contracts\n    PersonalContracts pContracts = getOrCreatePersonalContracts(msg.sender);\n    pContracts.addContract(newContract);\n  }\n}",
  "sourcePath": "C:\\Users\\Michael\\Documents\\Programming\\truffle-react\\contracts\\ContractManager.sol",
  "compiler": {
    "name": "solc",
    "version": "0.5.16+commit.9c3226ce.Emscripten.clang"
  },
  "schemaVersion": "3.0.23",
  "updatedAt": "2020-06-02T05:01:04.405Z",
  "networkType": "ethereum",
  "devdoc": {
    "methods": {}
  },
  "userdoc": {
    "methods": {}
  }
}