{
  "contractName": "ContractManager",
  "abi": [
    {
      "anonymous": false,
      "inputs": [
        {
          "indexed": false,
          "internalType": "address",
          "name": "owner",
          "type": "address"
        },
        {
          "indexed": false,
          "internalType": "address",
          "name": "location",
          "type": "address"
        }
      ],
      "name": "PersonalContractsCreated",
      "type": "event"
    },
    {
      "constant": true,
      "inputs": [],
      "name": "getPersonalContracts",
      "outputs": [
        {
          "internalType": "address",
          "name": "",
          "type": "address"
        }
      ],
      "payable": false,
      "stateMutability": "view",
      "type": "function"
    },
    {
      "constant": false,
      "inputs": [
        {
          "internalType": "address",
          "name": "owner",
          "type": "address"
        }
      ],
      "name": "createPersonalContracts",
      "outputs": [],
      "payable": false,
      "stateMutability": "nonpayable",
      "type": "function"
    },
    {
      "constant": false,
      "inputs": [],
      "name": "createContract",
      "outputs": [],
      "payable": false,
      "stateMutability": "nonpayable",
      "type": "function"
    }
  ],
  "bytecode": "0x608060405234801561001057600080fd5b50610f81806100206000396000f3fe608060405234801561001057600080fd5b50600436106100415760003560e01c8063412a5a6d1461004657806341eb998d14610050578063a88573b31461009a575b600080fd5b61004e6100de565b005b6100586101ea565b604051808273ffffffffffffffffffffffffffffffffffffffff1673ffffffffffffffffffffffffffffffffffffffff16815260200191505060405180910390f35b6100dc600480360360208110156100b057600080fd5b81019080803573ffffffffffffffffffffffffffffffffffffffff169060200190929190505050610250565b005b6000336040516100ed90610499565b808273ffffffffffffffffffffffffffffffffffffffff1673ffffffffffffffffffffffffffffffffffffffff168152602001915050604051809103906000f08015801561013f573d6000803e3d6000fd5b509050600061014d33610395565b90508073ffffffffffffffffffffffffffffffffffffffff16635f539d69836040518263ffffffff1660e01b8152600401808273ffffffffffffffffffffffffffffffffffffffff1673ffffffffffffffffffffffffffffffffffffffff168152602001915050600060405180830381600087803b1580156101ce57600080fd5b505af11580156101e2573d6000803e3d6000fd5b505050505050565b60008060003373ffffffffffffffffffffffffffffffffffffffff1673ffffffffffffffffffffffffffffffffffffffff16815260200190815260200160002060009054906101000a900473ffffffffffffffffffffffffffffffffffffffff16905090565b600060405161025e906104a6565b604051809103906000f08015801561027a573d6000803e3d6000fd5b509050806000808473ffffffffffffffffffffffffffffffffffffffff1673ffffffffffffffffffffffffffffffffffffffff16815260200190815260200160002060006101000a81548173ffffffffffffffffffffffffffffffffffffffff021916908373ffffffffffffffffffffffffffffffffffffffff1602179055507f0d1816353112c7bbdb2e2c5ade55947ad1c04c0f4ea0b4f58575479f4a0c28468282604051808373ffffffffffffffffffffffffffffffffffffffff1673ffffffffffffffffffffffffffffffffffffffff1681526020018273ffffffffffffffffffffffffffffffffffffffff1673ffffffffffffffffffffffffffffffffffffffff1681526020019250505060405180910390a15050565b60008073ffffffffffffffffffffffffffffffffffffffff166000808473ffffffffffffffffffffffffffffffffffffffff1673ffffffffffffffffffffffffffffffffffffffff16815260200190815260200160002060009054906101000a900473ffffffffffffffffffffffffffffffffffffffff1673ffffffffffffffffffffffffffffffffffffffff1614156104335761043282610250565b5b6000808373ffffffffffffffffffffffffffffffffffffffff1673ffffffffffffffffffffffffffffffffffffffff16815260200190815260200160002060009054906101000a900473ffffffffffffffffffffffffffffffffffffffff169050919050565b610890806104b483390190565b61020980610d448339019056fe608060405234801561001057600080fd5b506040516108903803806108908339818101604052602081101561003357600080fd5b8101908080519060200190929190505050806000806101000a81548173ffffffffffffffffffffffffffffffffffffffff021916908373ffffffffffffffffffffffffffffffffffffffff1602179055506040518060400160405280600581526020017f48656c6c6f000000000000000000000000000000000000000000000000000000815250600390805190602001906100cf9291906101d6565b506001600260008060009054906101000a900473ffffffffffffffffffffffffffffffffffffffff1673ffffffffffffffffffffffffffffffffffffffff1673ffffffffffffffffffffffffffffffffffffffff16815260200190815260200160002060006101000a81548160ff02191690831515021790555060016000809054906101000a900473ffffffffffffffffffffffffffffffffffffffff1690806001815401808255809150509060018203906000526020600020016000909192909190916101000a81548173ffffffffffffffffffffffffffffffffffffffff021916908373ffffffffffffffffffffffffffffffffffffffff160217905550505061027b565b828054600181600116156101000203166002900490600052602060002090601f016020900481019282601f1061021757805160ff1916838001178555610245565b82800160010185558215610245579182015b82811115610244578251825591602001919060010190610229565b5b5090506102529190610256565b5090565b61027891905b8082111561027457600081600090555060010161025c565b5090565b90565b6106068061028a6000396000f3fe608060405234801561001057600080fd5b506004361061004c5760003560e01c806359016c791461005157806379d6348d146100d4578063d13319c41461018f578063dfafe10f146101ad575b600080fd5b6100596101f1565b6040518080602001828103825283818151815260200191508051906020019080838360005b8381101561009957808201518184015260208101905061007e565b50505050905090810190601f1680156100c65780820380516001836020036101000a031916815260200191505b509250505060405180910390f35b61018d600480360360208110156100ea57600080fd5b810190808035906020019064010000000081111561010757600080fd5b82018360208201111561011957600080fd5b8035906020019184600183028401116401000000008311171561013b57600080fd5b91908080601f016020809104026020016040519081016040528093929190818152602001838380828437600081840152601f19601f820116905080830192505050505050509192919290505050610293565b005b61019761033d565b6040518082815260200191505060405180910390f35b6101ef600480360360208110156101c357600080fd5b81019080803573ffffffffffffffffffffffffffffffffffffffff1690602001909291905050506103bf565b005b606060038054600181600116156101000203166002900480601f0160208091040260200160405190810160405280929190818152602001828054600181600116156101000203166002900480156102895780601f1061025e57610100808354040283529160200191610289565b820191906000526020600020905b81548152906001019060200180831161026c57829003601f168201915b5050505050905090565b600260003373ffffffffffffffffffffffffffffffffffffffff1673ffffffffffffffffffffffffffffffffffffffff16815260200190815260200160002060009054906101000a900460ff161561033a5780600460003373ffffffffffffffffffffffffffffffffffffffff1673ffffffffffffffffffffffffffffffffffffffff168152602001908152602001600020908051906020019061033892919061052c565b505b50565b60006003604051602001808280546001816001161561010002031660029004801561039f5780601f1061037d57610100808354040283529182019161039f565b820191906000526020600020905b81548152906001019060200180831161038b575b505091505060405160208183030381529060405280519060200120905090565b6000809054906101000a900473ffffffffffffffffffffffffffffffffffffffff1673ffffffffffffffffffffffffffffffffffffffff163373ffffffffffffffffffffffffffffffffffffffff161480156104655750600260008273ffffffffffffffffffffffffffffffffffffffff1673ffffffffffffffffffffffffffffffffffffffff16815260200190815260200160002060009054906101000a900460ff16155b15610529576001600260008373ffffffffffffffffffffffffffffffffffffffff1673ffffffffffffffffffffffffffffffffffffffff16815260200190815260200160002060006101000a81548160ff02191690831515021790555060018190806001815401808255809150509060018203906000526020600020016000909192909190916101000a81548173ffffffffffffffffffffffffffffffffffffffff021916908373ffffffffffffffffffffffffffffffffffffffff160217905550505b50565b828054600181600116156101000203166002900490600052602060002090601f016020900481019282601f1061056d57805160ff191683800117855561059b565b8280016001018555821561059b579182015b8281111561059a57825182559160200191906001019061057f565b5b5090506105a891906105ac565b5090565b6105ce91905b808211156105ca5760008160009055506001016105b2565b5090565b9056fea265627a7a7231582029a55bc80b12e408962758a4751138205b657dc164409b34d0f5968edc17092364736f6c63430005100032608060405234801561001057600080fd5b50336000806101000a81548173ffffffffffffffffffffffffffffffffffffffff021916908373ffffffffffffffffffffffffffffffffffffffff1602179055506101a9806100606000396000f3fe608060405234801561001057600080fd5b506004361061002b5760003560e01c80635f539d6914610030575b600080fd5b6100726004803603602081101561004657600080fd5b81019080803573ffffffffffffffffffffffffffffffffffffffff169060200190929190505050610074565b005b60018190806001815401808255809150509060018203906000526020600020016000909192909190916101000a81548173ffffffffffffffffffffffffffffffffffffffff021916908373ffffffffffffffffffffffffffffffffffffffff160217905550507fed8c598cb69482ce991fa6e91ff326354506f29f48047c38043f4352a51d40b63382604051808373ffffffffffffffffffffffffffffffffffffffff1673ffffffffffffffffffffffffffffffffffffffff1681526020018273ffffffffffffffffffffffffffffffffffffffff1673ffffffffffffffffffffffffffffffffffffffff1681526020019250505060405180910390a15056fea265627a7a7231582094b120b95944c8d22ee5502a65f1cb41dd10a3bfea82f9b1f3a6a1f5d91c80c664736f6c63430005100032a265627a7a723158203df5f7446b6e928fb380d53f9d01dd786d0f951d2b1e01a56da1578dacf8be0e64736f6c63430005100032",
  "source": "pragma solidity >=0.4.21 <0.7.0;\n\ncontract BasicContract {\n  address owner;\n  address[] participants;\n  mapping(address => bool) permissions;\n  string content;\n  mapping(address => string) signatures;\n\n  constructor(address creator) public {\n    owner = creator;\n    content = \"Hello\";\n    permissions[owner] = true;\n    participants.push(owner);\n  }\n\n  function addParticipant(address participant) public {\n    // Make sure not to readd  the same person\n    if (msg.sender == owner && !permissions[participant]) {\n      permissions[participant] = true;\n      participants.push(participant);\n    }\n  }\n\n  function sign(string memory signature) public {\n    // Check they are allowed to sign the contract\n    if (permissions[msg.sender]) {\n      // TODO: Validate using ECRecover\n\n      signatures[msg.sender] = signature;\n    }\n  }\n\n  function getContent() public view returns (string memory) {\n    return content;\n  }\n\n  function getHash() public view returns (bytes32) {\n    return keccak256(abi.encodePacked(content));\n  }\n\n}\n\ncontract PersonalContracts {\n  address owner;\n  BasicContract[] contracts;\n\n  event ContractAssigned(address creator, address location);\n\n  function addContract(BasicContract c) public {\n    contracts.push(c);\n    emit ContractAssigned(msg.sender, address(c));\n  }\n\n  constructor() public {\n    owner = msg.sender;\n  }\n}\n\ncontract ContractManager {\n  mapping(address => PersonalContracts) personalContracts;\n\n  function getPersonalContracts() public view returns (address) {\n    return address(personalContracts[msg.sender]);\n  }\n\n  event PersonalContractsCreated(address owner, address location);\n\n  function createPersonalContracts(address owner) public {\n    PersonalContracts pContracts = new PersonalContracts();\n    personalContracts[owner] = pContracts;\n    emit PersonalContractsCreated(owner, address(pContracts));\n  }\n\n  function getOrCreatePersonalContracts(address owner) private returns (PersonalContracts) {\n    if (address(personalContracts[owner]) == address(0)) {\n      createPersonalContracts(owner);\n    }\n\n    return personalContracts[owner];\n  }\n\n\n  function createContract() public {\n    BasicContract newContract = new BasicContract(msg.sender);\n\n    // Automatically assign the contract to the creators personal contracts\n    PersonalContracts pContracts = getOrCreatePersonalContracts(msg.sender);\n    pContracts.addContract(newContract);\n  }\n}",
  "sourcePath": "C:\\Users\\Michael\\Documents\\Programming\\truffle-react\\contracts\\ContractManager.sol",
  "compiler": {
    "name": "solc",
    "version": "0.5.16+commit.9c3226ce.Emscripten.clang"
  },
  "schemaVersion": "3.0.23",
  "updatedAt": "2020-05-24T08:53:01.932Z",
  "networkType": "ethereum",
  "devdoc": {
    "methods": {}
  },
  "userdoc": {
    "methods": {}
  }
}