{
  "contractName": "PersonalContracts",
  "abi": [
    {
      "inputs": [],
      "payable": false,
      "stateMutability": "nonpayable",
      "type": "constructor"
    },
    {
      "anonymous": false,
      "inputs": [
        {
          "indexed": false,
          "internalType": "address",
          "name": "creator",
          "type": "address"
        },
        {
          "indexed": false,
          "internalType": "address",
          "name": "location",
          "type": "address"
        }
      ],
      "name": "ContractAssigned",
      "type": "event"
    },
    {
      "constant": false,
      "inputs": [
        {
          "internalType": "contract BasicContract",
          "name": "c",
          "type": "address"
        }
      ],
      "name": "addContract",
      "outputs": [],
      "payable": false,
      "stateMutability": "nonpayable",
      "type": "function"
    },
    {
      "constant": true,
      "inputs": [],
      "name": "getContracts",
      "outputs": [
        {
          "internalType": "contract BasicContract[]",
          "name": "",
          "type": "address[]"
        }
      ],
      "payable": false,
      "stateMutability": "view",
      "type": "function"
    }
  ],
  "bytecode": "0x608060405234801561001057600080fd5b50336000806101000a81548173ffffffffffffffffffffffffffffffffffffffff021916908373ffffffffffffffffffffffffffffffffffffffff1602179055506102a1806100606000396000f3fe608060405234801561001057600080fd5b50600436106100365760003560e01c80635f539d691461003b578063c3a2a93a1461007f575b600080fd5b61007d6004803603602081101561005157600080fd5b81019080803573ffffffffffffffffffffffffffffffffffffffff1690602001909291905050506100de565b005b6100876101de565b6040518080602001828103825283818151815260200191508051906020019060200280838360005b838110156100ca5780820151818401526020810190506100af565b505050509050019250505060405180910390f35b60018190806001815401808255809150509060018203906000526020600020016000909192909190916101000a81548173ffffffffffffffffffffffffffffffffffffffff021916908373ffffffffffffffffffffffffffffffffffffffff160217905550507fed8c598cb69482ce991fa6e91ff326354506f29f48047c38043f4352a51d40b63382604051808373ffffffffffffffffffffffffffffffffffffffff1673ffffffffffffffffffffffffffffffffffffffff1681526020018273ffffffffffffffffffffffffffffffffffffffff1673ffffffffffffffffffffffffffffffffffffffff1681526020019250505060405180910390a150565b6060600180548060200260200160405190810160405280929190818152602001828054801561026257602002820191906000526020600020905b8160009054906101000a900473ffffffffffffffffffffffffffffffffffffffff1673ffffffffffffffffffffffffffffffffffffffff1681526020019060010190808311610218575b505050505090509056fea265627a7a7231582098b94ab3c1de82ce35061e541bb2c8e58c6b63d9477a36e8c1d4d7b649b5110b64736f6c63430005100032",
  "source": "pragma solidity >=0.4.21 <0.7.0;\n\ncontract BasicContract {\n  address owner;\n  address[] participants;\n  mapping(address => bool) permissions;\n  string content;\n  mapping(address => string) signatures;\n\n  constructor(address creator) public {\n    owner = creator;\n    content = \"Hello\";\n    permissions[owner] = true;\n    participants.push(owner);\n  }\n\n  function addParticipant(address participant) public {\n    // Make sure not to readd  the same person\n    if (msg.sender == owner && !permissions[participant]) {\n      permissions[participant] = true;\n      participants.push(participant);\n    }\n  }\n\n  function sign(string memory signature) public {\n    // Check they are allowed to sign the contract\n    if (permissions[msg.sender]) {\n      // TODO: Validate using ECRecover\n\n      signatures[msg.sender] = signature;\n    }\n  }\n\n  function getContent() public view returns (string memory) {\n    return content;\n  }\n\n  function getHash() public view returns (bytes32) {\n    return keccak256(abi.encodePacked(content));\n  }\n\n}\n\ncontract PersonalContracts {\n  address owner;\n  BasicContract[] contracts;\n\n  event ContractAssigned(address creator, address location);\n\n  function addContract(BasicContract c) public {\n    contracts.push(c);\n    emit ContractAssigned(msg.sender, address(c));\n  }\n\n  function getContracts() public view returns(BasicContract[] memory) {\n      return contracts;\n  }\n\n  constructor() public {\n    owner = msg.sender;\n  }\n}\n\ncontract ContractManager {\n  mapping(address => PersonalContracts) personalContracts;\n\n  function getPersonalContracts() public view returns (address) {\n    return address(personalContracts[msg.sender]);\n  }\n\n  event PersonalContractsCreated(address owner, address location);\n\n  function createPersonalContracts(address owner) public {\n    PersonalContracts pContracts = new PersonalContracts();\n    personalContracts[owner] = pContracts;\n    emit PersonalContractsCreated(owner, address(pContracts));\n  }\n\n  function getOrCreatePersonalContracts(address owner) private returns (PersonalContracts) {\n    if (address(personalContracts[owner]) == address(0)) {\n      createPersonalContracts(owner);\n    }\n\n    return personalContracts[owner];\n  }\n\n\n  function createContract() public {\n    BasicContract newContract = new BasicContract(msg.sender);\n\n    // Automatically assign the contract to the creators personal contracts\n    PersonalContracts pContracts = getOrCreatePersonalContracts(msg.sender);\n    pContracts.addContract(newContract);\n  }\n}",
  "sourcePath": "C:\\Users\\Michael\\Documents\\Programming\\truffle-react\\contracts\\ContractManager.sol",
  "compiler": {
    "name": "solc",
    "version": "0.5.16+commit.9c3226ce.Emscripten.clang"
  },
  "schemaVersion": "3.0.23",
  "updatedAt": "2020-05-24T09:47:58.302Z",
  "devdoc": {
    "methods": {}
  },
  "userdoc": {
    "methods": {}
  }
}